:020000040800F2
:1000000000070020890100088F100008090F000870
:100010008D1000088F020008731500080000000012
:100020000000000000000000000000009313000822
:1000300091020008000000009113000895130008C9
:10004000A3010008A3010008A3010008A301000800
:10005000A3010008A3010008A3010008A3010008F0
:10006000A3010008A3010008A3010008A3010008E0
:10007000A3010008A3010008A3010008A3010008D0
:10008000A3010008A3010008A3010008A3010008C0
:10009000A3010008A3010008A3010008A3010008B0
:1000A000A3010008A3010008A3010008A3010008A0
:1000B000A3010008A3010008F9130008A301000828
:1000C000A3010008A3010008A3010008A301000880
:1000D000A3010008A3010008A3010008A301000870
:1000E000A3010008A3010008A301000800F002F822
:1000F00000F03AF80AA090E8000C82448344AAF188
:100100000107DA4501D100F02FF8AFF2090EBAE885
:100110000F0013F0010F18BFFB1A43F0010318473B
:10012000201B0000401B0000103A24BF78C878C193
:10013000FAD8520724BF30C830C144BF04680C60ED
:10014000704700000023002400250026103A28BF35
:1001500078C1FBD8520728BF30C148BF0B60704739
:100160001FB51FBD10B510BD00F058F81146FFF7C0
:10017000F7FF01F00FFA00F076F803B4FFF7F2FF93
:1001800003BC00F07DF8000009488047094800479B
:10019000FEE7FEE7FEE7FEE7FEE7FEE7FEE7FEE737
:1001A000FEE7FEE704480549054A064B7047000094
:1001B000F7130008ED0000080001002000070020F0
:1001C00000030020000300204FF0000200B513469A
:1001D00094469646203922BFA0E80C50A0E80C5067
:1001E000B1F12001BFF4F7AF090728BFA0E80C5018
:1001F00048BF0CC05DF804EB890028BF40F8042B11
:1002000008BF704748BF20F8022B11F0804F18BF7D
:1002100000F8012B7047704770477047754600F033
:100220002BF8AE4605006946534620F00700854688
:1002300018B020B5FFF7B6FFBDE820404FF000062C
:100240004FF000074FF000084FF0000B21F00701BE
:10025000AC46ACE8C009ACE8C009ACE8C009ACE801
:10026000C0098D46704710B50446AFF300802046A4
:10027000BDE81040FFF781BF00487047A000002094
:1002800001491820ABBEFEE7260002007047FEE7DA
:10029000704772B6FEE700002DE9F84FDFF8B8911D
:1002A0000024A9F1040B23460F2709F1040AABF13E
:1002B000040EC9E00125A5402A40AA427DD1674E1F
:1002C000D1F804C0ACEB0608B44532D014DCBCF164
:1002D000030F3AD009DCBCF1000F2AD0BCF1010FAA
:1002E0001CD0BCF1020F31D11DE0BCF1110F17D0B1
:1002F000BCF1120F2AD119E0B8F5881F19D006DC1D
:10030000B8F5803F15D0B8F5801F1FD111E0B8F5C2
:10031000001F0ED0B8F5041F18D10AE0CB6815E015
:10032000CB681B1D12E0CB6808330FE0CB680C33A1
:100330000CE08B682BB1012B4FF0080303D0456113
:1003400004E0042302E0056100E00023FF2A01D855
:10035000064601E000F104064FEA840501D9A5F143
:100360002005D6F8008007FA05FC28EA0C0803FAF5
:1003700005F548EA0508C6F800804D68ED0062D52D
:10038000374DAE6946F00106AE61AD6924F0030653
:1003900005F001050095334D06EB050CDCF808501F
:1003A000A607360F07FA06F825EA0805DFF8B88031
:1003B000404503D14FF0000817E044E0DFF8AC807F
:1003C000404502D14FF001080FE0DFF8A48040451E
:1003D00002D14FF0020808E0DFF89880404502D1D2
:1003E0004FF0030801E04FF0040808FA06F848EA65
:1003F0000508CCF808804D68D9F80060ED024D463C
:1004000001D5164300E096432E604D68DAF800608F
:10041000AD02554601D5164300E096432E604D6867
:10042000DBF80060AD035D4601D5164300E096435E
:100430002E604D68DEF80060ED03754601D5164369
:1004400000E096432E60641C0D682A46E5407FF468
:1004500031AFBDE8F88F0000080401400000111022
:10046000001002400000014000080140000C014063
:100470000010014000140140C26821EA02030A4052
:1004800043EA0241016170470AB101617047090402
:10049000FBE7000001488068704700000000002072
:1004A0000248816802781144816070470000002092
:1004B000074810B5016841F010010160032000F009
:1004C00075F80F2000F006F800F024F8002010BDA9
:1004D0000020024070B50D4D04464FF47A71287823
:1004E000B1FBF0F00A490968B1FBF0F000F0BCFA8A
:1004F00048B9102C07D200222146501E00F036F8D1
:1005000000206C6070BD012070BD00000000002064
:100510000C0000200C4808B5816941F0010181619F
:10052000816901F001010091C16941F08051C1610F
:10053000C06900F0805000900448416821F0E061FB
:1005400041F00071416008BD001002400000014010
:10055000002809DB00F01F020121914040098000C2
:1005600000F1E020C0F8001170470000F0B40E4B1D
:100570001B680C46C3F30223C3F10705042D00D901
:100580000425191D072901D2002300E0DB1E0126E6
:1005900006FA05F1491E214099409E40761E1640FC
:1005A0003143F0BC00F0E6BF0CED00E0064900F07E
:1005B000070208684FF6FF03184040EA0220034A8A
:1005C00010430860704700000CED00E00000FA05E1
:1005D0002DE9F0470F46050061D0434E306800F02A
:1005E0000700B84209D2306820F007003843306075
:1005F000306800F00700B84251D128683B4C8107B1
:1006000012D5400703D5606840F4E0606060287848
:10061000000703D5606840F4605060606068A968B6
:1006200020F0F000084360602878C00728D0686890
:10063000012810D02168022810D0890700292EDA5D
:10064000616821F0030101436160FFF723FF8046E9
:1006500041F288390DE021688903EFE78901EDE770
:10066000FFF718FFA0EB0801494502D90320BDE8B8
:10067000F0876068696800F00C00B0EB810FEFD183
:10068000306800F00700B8420BD9306820F007004E
:1006900038433060306800F00700B84201D00120D4
:1006A000E5E72878400705D56068E96820F4E06050
:1006B000084360602878000706D56068296920F43F
:1006C000605040EAC100606000F018F86168084AB4
:1006D000C1F30311515CC840064908600648006830
:1006E000FFF7F8FE0020C2E70020024000100240A1
:1006F0003E1600080C000020040000200E4A51683D
:100700000E4801F00C03042B11D0082B0FD10C481C
:10071000C1F38343C903C05C0AD55168084AC1F3D9
:100720004041921E515C054A5043B0FBF1F07047C6
:1007300004494843704700000010024000127A004C
:100740002E16000800093D002DE9F84F040070D076
:100750002078C04DC00749D06868C0F381000128E7
:1007600007D06868C0F38100022809D16868C00317
:1007700006D52868800339D560680028E7D035E0C1
:100780006068B0F5803F0BD010B1B0F5A02F11D04C
:10079000286820F480302860286820F4802002E057
:1007A000286840F480302860606890B1FFF772FEDE
:1007B00006460AE0286840F480202860F0E700BF81
:1007C000FFF768FE801B642873D828688003F7D57C
:1007D0000CE0FFF75FFE064605E000BFFFF75AFE9C
:1007E000801B6428F0D828688003F7D420789A4EBC
:1007F00080074FF001094FF0000839D5686810F004
:100800000C0F07D06868C0F38100022809D168681E
:10081000C00306D42868800714D52069012808D1B0
:1008200010E02069B0B1C6F80090FFF733FE07462C
:1008300005E00AE1FFF72EFEC01B0228C4D8286895
:100840008007F7D52868616920F0F80040EAC10008
:1008500028600DE0C6F80080FFF71CFE074604E0A4
:10086000FFF718FEC01B022823D828688007F7D49A
:10087000207800072CD57948A169D9B1C0F800903B
:10088000FFF708FE074604E0FFF704FEC01B02283E
:100890000FD8686A8007F7D571484FF4FA5100689D
:1008A000B0FBF1F0009000BF0098411E0091FAD219
:1008B0000EE080E0C0F80080FFF7ECFD074604E0A2
:1008C000FFF7E8FDC01B022875D8686A8007F7D4D7
:1008D0002078400760D5E8690027C00008D4E8699F
:1008E00040F08050E861E869012700F080500090F6
:1008F0005C480168C90513D40168834641F48071DE
:100900000160FFF7C7FD824606E000BFFFF7C2FDAA
:10091000A0EB0A0064284ED8DBF80000C005F5D52E
:10092000E06801280AD008B1052813D0286A20F011
:1009300001002862286A20F0040002E0286A40F0E2
:1009400001002862E06841F2883B98B1FFF7A2FD00
:1009500082460BE0286A40F004002862EEE700BF00
:10096000FFF798FDA0EB0A0159455AD8286A80077D
:10097000F6D50CE0FFF78EFD824605E0FFF78AFD15
:10098000A0EB0A0159454CD8286A8007F6D41FB15C
:10099000E86920F08050E861E06988B36968C1F3D4
:1009A0008101022944D00228C6F8608004D0FFF7F4
:1009B00071FD044638E034E0FFF76CFD074604E0C3
:1009C000FFF768FDC01B02282BD828688001F7D4E8
:1009D000206AB0F5803F05D16868A16820F4003036
:1009E00008436860D4E908010843696821F4741178
:1009F00008436860C6F86090FFF74CFD044606E0C7
:100A000025E000BFFFF746FD001B022809D8286833
:100A10008001F7D51BE000BFFFF73CFD001B02285B
:100A200002D90320BDE8F88F28688001F4D40EE0D5
:100A30000128F7D06868226A00F48031914204D11D
:100A4000616A00F47010884201D00120EAE70020BA
:100A5000E8E70000001002400000424280044242E9
:100A60000C0000200070004010B5401EB0F1807FE7
:100A700001D3012010BD4FF0E02460610F21601709
:100A800000F078FD0020A06107202061002010BD4B
:100A90007047704770B590F83C20012A26D0012499
:100AA00080F83C40022280F83D2003685A689D6827
:100AB00022F070060A6832435A600D4B02689A426F
:100AC00008D0B2F1804F05D00A4B9A4202D00A4BAF
:100AD0009A4204D1496825F080031943916080F857
:100AE0003D40002180F83C10084670BD022070BDDA
:100AF000002C0140000400400008004010B5040034
:100B000003D094F83D0010B107E0012010BD002093
:100B100084F83C00204600F01FF8022084F83D00D5
:100B2000211D206800F06EFC012084F8460084F846
:100B30003E0084F83F0084F8400084F8410084F8C7
:100B4000420084F8430084F8440084F8450084F8A7
:100B50003D00002010BD000000B585B000210091CF
:100B600001910291039101681848B1F1804F14D0AE
:100B7000174A91420FD1C16941F00401C161C069B6
:100B8000002200F00400049011461E20FFF7EEFC46
:100B90001E20FFF7DDFC05B000BDC16941F0010179
:100BA000C161C16901F001010491816941F0040151
:100BB00081618069694600F0040004900120009082
:100BC00002900448FFF768FBE5E7000000100240D0
:100BD000000800400008014090F83D10012901D0B4
:100BE00001207047022180F83D1000680B498842BF
:100BF00008D0B0F1804F05D00949884202D0094998
:100C0000884204D1816801F00701062903D00168F8
:100C100041F001010160002070470000002C0140FC
:100C2000000400400008004090F83D10012901D068
:100C300001207047022180F83D100168CA6842F027
:100C40000102CA6000680B49884208D0B0F1804FA9
:100C500005D00949884202D00849884204D18168F8
:100C600001F00701062903D0016841F0010101608C
:100C700000207047002C01400004004000080040A4
:100C800070B5044690F83C000025012817D00126D5
:100C900084F83C60022084F83D002068826822F0DD
:100CA000770222F47F4282600868502838D00DDC39
:100CB00020284FD005DC90B3102811D14AE0022043
:100CC00070BD302846D040280AD13BE060282FD0A4
:100CD00070280DD0B0F5805F03D0B0F5005F12D062
:100CE000012584F83D60002084F83C00284670BD52
:100CF000CB68D1E90121206800F0C0FB2068816841
:100D000041F0770109E0CB68D1E90121206800F0CA
:100D1000B5FB2068816841F480418160E1E719E01A
:100D2000CA684968206800F001FC5021206806E08C
:100D3000CA684968206800F00AFC6021206800F059
:100D4000A7FBCEE7CA684968206800F0EFFB4021A6
:100D50002068F4E7226801461046F0E770472DE965
:100D6000F04104460068C66805694FF00007A9070E
:100D700013D5B10711D5F91E016101202077206834
:100D800080698007204602D0FFF7E8FF04E000F00A
:100D90007EF8204600F07CF82777680716D57007A4
:100DA00014D521686FF004000861022020772068C4
:100DB000806910F4407F204602D0FFF7CFFF04E0A7
:100DC00000F065F8204600F063F82777280715D56E
:100DD000300713D521686FF00800086104202077E0
:100DE0002068C0698007204602D0FFF7B7FF04E003
:100DF00000F04DF8204600F04BF82777E80616D5AE
:100E0000F00614D521686FF01000086108202077E3
:100E10002068C06910F4407F204602D0FFF79EFF93
:100E200004E000F034F8204600F032F82777E807B5
:100E300008D0F00706D021686FF001000861204655
:100E400000F028F8280608D5300606D521686FF08E
:100E5000800008612046FFF71BFE680608D5700673
:100E600006D521686FF040000861204600F04BF87D
:100E7000A8060AD5B00608D521686FF020000861E1
:100E80002046BDE8F041FFF704BEBDE8F0817047A1
:100E90007047000000680449884203D102210348DA
:100EA000FFF7EABA70470000000800400008014060
:100EB00070B5044690F83C00012812D0012584F852
:100EC0003C50022084F83D00204600F0E9FA010081
:100ED0004FF0000007D084F83D5084F83C0001201A
:100EE00070BD022070BD2168CA6822F04002CA604D
:100EF0002168CA6822F48042CA6084F83D5084F8B0
:100F00003C00002070BD7047FEE700002DE9F04175
:100F100086B00024244800940194029403948169CB
:100F200041F010018161816901F010010491816932
:100F300041F020018161816901F020010491816902
:100F400041F004018161816901F00401049181692A
:100F500041F0080181618069144F00F0080004909D
:100F6000012202213846FFF78FFADFF844804FF460
:100F70004076002231464046FFF786FA02250120DE
:100F8000CDE9005069463846CDE90245FFF784F9BE
:100F900001AA1120009682E8310069464046FFF719
:100FA0007BF906B0BDE8F081001002400008014066
:100FB000000C014010B586B000241948009401943B
:100FC0000294039404944FF080410594C0E9001406
:100FD0000221C0E90241C90184610161FFF78EFD70
:100FE00008B1FFF756F94FF40050CDE900040F2087
:100FF000CDE9024069460A48FFF742FE08B1FFF713
:1010000048F9202004908020059004A90448FFF7A7
:1010100041FD002801D0FFF73CF906B010BD0000EB
:101020001000002010B588B014216846FFF7CCF8F6
:1010300000241548059413490694C0E900140121C1
:10104000C0E90241802104618161FFF757FD08B1C9
:10105000FFF71FF9072000901020019069460A4809
:10106000FFF726FF08B1FFF714F9059405A9064814
:101070000694FFF70FFD002801D0FFF70AF908B02A
:1010800010BD00000008004058000020FEE7FEE709
:1010900070B500240021204600F0DFF80025002074
:1010A00000F065F96D1CEDB2802DF8D3641CE4B23C
:1010B000082CEFD370BD000010B5FFF727FF064CDA
:1010C000012211022046FFF7DFF920460122BDE888
:1010D00010405102FFF7D8B9000C01402DE9F0474C
:1010E000144E002407464FF080084FF40079B515E0
:1010F00028FA04F23A4049463046FFF7C5F9012282
:1011000029463046FFF7C0F9002229463046FFF74E
:10111000BBF9641CE4B2082CEAD30122294630460C
:10112000FFF7B2F929463046BDE8F0470022FFF745
:10113000ABB90000000C014070B501220B4D540208
:1011400021462846FFF7A0F901221602314628461B
:10115000FFF79AF9002221462846FFF795F9314614
:101160002846BDE870400022FFF78EB9000C014010
:1011700070B50A4D4FF40074002221462846FFF74F
:1011800083F9012211022846FFF77EF921462846FD
:10119000BDE870400122FFF777B90000000C014064
:1011A00010B500204FF47A720021491C9142FCD303
:1011B000401C9042F8D3FFF77FFFAE2000F0C6F846
:1011C000D52000F0C3F8802000F0C0F8A82000F07F
:1011D000BDF83F2000F0BAF8D32000F0B7F80020A7
:1011E00000F0B4F8402000F0B1F8A12000F0AEF813
:1011F000C82000F0ABF8DA2000F0A8F8122000F0C8
:10120000A5F8812000F0A2F8CF2000F09FF8D920A7
:1012100000F09CF8F12000F099F8DB2000F096F83F
:10122000302000F093F8A42000F090F8A62000F001
:101230008DF88D2000F08AF8142000F087F8AF2098
:1012400000F084F8BDE81040FFF722BF02460120FD
:1012500000E05043491EFCD2704710B50C4640F0E8
:10126000B00000F073F8102040EA141000F06EF89F
:1012700004F00F00BDE8104000F068B82DE9F0411F
:101280000746CE004000083E801E15464FF0FF384E
:10129000F1B2C0B2FFF7E1FF1148002400EB0515E1
:1012A0002819A0F5805090F8000E00F060F8641C3A
:1012B000E4B2082CF4D308EB4700F1B2C0B2FFF758
:1012C000CCFF00242819A0F5805090F8080E00F0FB
:1012D0004EF8641CE4B2082CF4D3BDE8F0810000A1
:1012E0004E1600082DE9F04700241D461646884694
:1012F00081460A2713E0291B0A20491EFFF7A6FF93
:10130000B6FBF0F0B0FBF7F107FB110208EB0400AD
:10131000C1B248463032FFF7B1FF641CE4B2AC42C0
:10132000E9D3BDE8F0872DE9F04115460E460746A2
:10133000002406E03019C1B23846FFF79FFF641C55
:10134000E4B22A5D002AF5D1BDE8F08110B504466B
:10135000FFF7F2FE7820FFF7C1FE0020FFF7BEFE88
:101360002046FFF7BBFEBDE81040FFF701BF10B5F8
:101370000446FFF7E1FE7820FFF7B0FE4020FFF7BC
:10138000ADFE2046FFF7AAFEBDE81040FFF7F0BE15
:1013900070477047FFF784B830B58FB02821684692
:1013A000FEF712FF14210AA8FEF70EFF0121080420
:1013B000CDE900100024029402250491CDE90750E4
:1013C0004FF4E01009906846FFF7BEF908B172B615
:1013D000FEE70F20CDE90A054FF48060CDE90C400F
:1013E00002210AA80E94FFF7F3F8002801D072B684
:1013F000FEE70FB030BD70470148FFF7B0BC0000FA
:1014000058000020F0B50268194B1A4C1A4D4FF0E5
:101410008047984205D0B84203D0A04201D0A842EC
:1014200003D122F070064A683243984205D0B84290
:1014300003D0A04201D0A84203D122F44074CA686C
:1014400022434C6922F08002224302608A68C26211
:101450000A688262984201D10969016301214161F0
:101460000169C90703D0016921F001010161F0BDE3
:10147000002C0140000400400008004010B58468C2
:1014800042EA032224F47F440A432243826010BDCF
:10149000826822F070020A4342F0070181607047BF
:1014A00070B5036800249A6822F070054A682A43E0
:1014B00022F007050A682A439A604A6812F00F0F63
:1014C00031D11211082A2ED2DFE802F02E2E2E2E54
:1014D0000B2127040B69D1E902210068FFF7CEFF39
:1014E00022E00A68052A10D00268136A156A25F0FE
:1014F0000105156202689569096925F0F00545EA5C
:1015000001119161006803620EE0012070BD0A695B
:101510008968006800F00AF806E00A6989680068CE
:1015200000F015F800E00124204670BD10B5036AF4
:10153000046A24F001040462846924F0F00444EA9B
:10154000021423F00A020A438461026210BD10B53E
:10155000036A046A24F010040462846923F0A0037F
:1015600024F4704444EA023243EA011182610162C8
:1015700010BDFEE70907090E002804DB00F1E0209A
:1015800080F80014704700F00F0000F1E02080F8B0
:10159000141D7047FEF78CFFFFF7FEFEFFF7B6FC49
:1015A000FFF708FDFFF73EFDFFF7FAFDFFF770FDBF
:1015B000164D002029684862154C21684862216850
:1015C000801E08612046FFF72FFB2846FFF704FB2B
:1015D0002868406A87B22068406A012186B20DA25D
:1015E0000846FFF7A0FE02233A460A210120FFF732
:1015F00079FE0BA201210220FFF795FE022332465D
:101600000A211846FFF76EFEE2E7000010000020F6
:101610005800002054494D325F434E543A000000B8
:1016200054494D345F434E543A0000000102020316
:101630000405060708090A0B0C0D0E0F1010000018
:101640000000000000000102030406070809000072
:10165000000000000000000000000000000000008A
:1016600000F800000000000000333000000000100F
:101670000C06100C0600000000000000000040C036
:101680007840C0784000043F04043F040400007028
:1016900088FC08300000001820FF211E0000F00820
:1016A000F000E018000000211C031E211E0000F0C5
:1016B0000888700000001E2123241927211010160D
:1016C0000E0000000000000000000000000000000C
:1016D00000E018040200000000071820400000028B
:1016E0000418E000000000402018070000004040FF
:1016F00080F0804040000202010F01020200000061
:1017000000F0000000000101011F010101000000C4
:1017100000000000000080B0700000000000000029
:1017200000000000000000010101010101010000B2
:101730000000000000000030300000000000000049
:10174000000080601804006018060100000000E03E
:1017500010080810E000000F102020100F000010EB
:1017600010F8000000000020203F20200000007042
:10177000080808887000003028242221300000303A
:101780000888884830000018202020110E00000032
:10179000C02010F8000000070424243F240000F8B3
:1017A0000888880808000019212020110E0000E098
:1017B000108888180000000F112020110E0000383A
:1017C0000808C83808000000003F00000000007052
:1017D000880808887000001C222121221C0000E0DB
:1017E00010080810E0000000312222110F00000054
:1017F00000C0C00000000000003030000000000009
:101800000080000000000000806000000000000078
:101810008040201008000001020408102000404011
:101820004040404040000404040404040400000854
:101830001020408000000020100804020100007009
:1018400048080808F0000000003036010000C030F1
:10185000C828E810E0000718272423140B00000014
:10186000C038E0000000203C23020227382008F89E
:10187000888888700000203F202020110E00C03092
:10188000080808083800071820202010080008F869
:1018900008080810E000203F202020100F0008F862
:1018A0008888E8081000203F20202320180008F82E
:1018B0008888E8081000203F200003000000C030A6
:1018C00008080838000007182020221E020008F827
:1018D00008000008F808203F210101213F200008EE
:1018E00008F8080800000020203F20200000000029
:1018F0000808F8080800C08080807F00000008F811
:1019000088C028180800203F20012638200008F849
:10191000080000000000203F20202020300008F8B0
:10192000F800F8F80800203F003F003F200008F8CA
:1019300030C00008F808203F200007183F00E010E2
:1019400008080810E0000F10202020100F0008F8F1
:1019500008080808F000203F210101010000E01004
:1019600008080810E0000F18242438504F0008F829
:10197000888888887000203F2000030C3020007089
:101980008808080838000038202121221C00180887
:1019900008F8080818000000203F2000000008F8A0
:1019A00008000008F808001F202020201F000878E9
:1019B000880000C83808000007380E010000F80849
:1019C00000F80008F800033C0700073C0300081873
:1019D00068808068180820302C03032C30200838D9
:1019E000C800C83808000000203F20000000100890
:1019F0000808C838080020382621202018000000D8
:101A000000FE020202000000007F40404000000C87
:101A100030C000000000000000010638C0000002D5
:101A20000202FE000000004040407F000000000075
:101A30000402020204000000000000000000000098
:101A40000000000000008080808080808080000294
:101A50000204000000000000000000000000000080
:101A60008080808000000019242222223F2008F874
:101A7000008080000000003F112020110E000000B7
:101A8000008080800000000E112020201100000046
:101A900000808088F800000E112020103F200000F8
:101AA000808080800000001F2222222213000080FC
:101AB00080F0888888180020203F20200000000047
:101AC000808080808000006B94949493600008F87C
:101AD000008080800000203F210000203F20008007
:101AE0009898000000000020203F20200000000007
:101AF00000809898000000C08080807F000008F877
:101B0000000080808000203F24022D30200000084B
:101B100008F8000000000020203F20200000808006
:101B2000808080808000203F20003F20003F808018
:101B3000008080800000203F210000203F20000026
:101B4000808080800000001F202020201F008080D7
:101B500000808000000080FFA12020110E00000006
:101B6000008080808000000E112020A0FF808080F7
:101B700080008080800020203F21200001000000A4
:101B80008080808080000033242424241900008079
:101B900080E0808000000000001F20200000808086
:101BA000000000808000001F202020103F20808047
:101BB00080000080808000010E30080601008080D7
:101BC0000080008080800F300C030C300F000080FC
:101BD0008000808080000020312E0E312000808027
:101BE00080000080808080818E7018060100008057
:101BF0008080808080000021302C22213000000075
:101C00000000807C020200000000003F4040000015
:101C10000000FF00000000000000FF0000000002C4
:101C2000027C800000000040403F000000000006F1
:101C30000101020204040000000000000000000096
:101C4000601C0008000000201000000028010008AF
:101C5000701C000810000020F0060000440100087D
:101C600001000000100000000000000000127A00D7
:04000005080000ED02
:00000001FF
